:1000000009C04DC020C01FC01EC01DC01CC01BC0E9
:100010001AC019C011241FBECFE9CDBF10E0A0E661
:10002000B0E0ECE3F2E002C005900D92A037B1071A
:10003000D9F720E0A0E7B0E001C01D92AC37B207CD
:10004000E1F78DD0F9C0DCCFC298EAE3F1E0319757
:10005000F1F700C0000030E020E0082E000C990B02
:10006000AC01022E02C0559547950A94E2F740FF75
:1000700014C0C29AEAE3F1E03197F1F700C0000042
:100080002F5F3F4F2830310559F7C29A8BE291E03C
:100090000197F1F700C000000895C298EBCF1F92BE
:1000A0000F920FB60F9211242F933F934F935F93AC
:1000B0006F937F938F939F93EF93FF938AE391E0E6
:1000C0000197F1F700C0000030E020E080E061E03F
:1000D00070E0AB01022E01C0440F0A94EAF7B19B15
:1000E0003BC0842BEAE3F1E03197F1F700C0000058
:1000F0002F5F3F4F2830310561F7B19B1EC0882329
:10010000E1F08F37D1F0E0917A00F0917B00E05977
:10011000FF4F808380917A0090917B0001969093AD
:100120007B0080937A0080917A0090917B000B97FE
:1001300024F010927B0010927A00FF91EF919F9132
:100140008F917F916F915F914F913F912F910F9080
:100150000FBE0F901F90189540958423C3CFCF9367
:10016000DF93CDB7DD27CF50CDBF84E087BBB998F3
:10017000C29A8BB780648BBF85B7826085BF789445
:100180008DE0E0E6F0E08E010F5F1F4FD801019097
:100190000D928A95E1F71F861E8680917A009091D4
:1001A0007B0018161906F4F5F80101900020E9F714
:1001B00031977F01E01AF10A6801C601801B910B9B
:1001C0008E159F052CF4F60181916F013DDFF5CF6F
:1001D000F12CE12C80917A0090917B00E816F906D1
:1001E000ECF4E0917A00F0917B00E059FF4F8081C0
:1001F000E0917A00F0917B00E059FF4F108220914E
:100200007A0030917B002150310930937B0020939C
:100210007A001ADFFFEFEF1AFF0ADCCF8DE014DF60
:100220008AE012DF2FE789EA93E021508040904076
:0C023000E1F700C00000B1CFF894FFCF50
:10023C00492052656365697665203A20000000000C
:00000001FF
